:0C0000000C9447000C9400000C940000CD
:10000C000C9400000C9400000C9400000C94000064
:10001C000C9400000C9400000C9400000C94000054
:10002C000C9400000C9400000C9400000C94000044
:10003C000C9400000C9400000C9400000C94000034
:10004C000C9400000C9400000C9400000C94000024
:10005C000C9400000C9400000C9400000C94000014
:10006C000C9400000C9400000C9400000C94000004
:10007C001027E80364000A000100001000011000C2
:10008C000100F894EE27EFBBF1E0F5BFE5BF8DE082
:10009C00A2E0BB27ED938A95E9F780E094E0A0E01D
:1000AC00B1E0ED930197E9F7E0E0EEBBEFEFEDBFC8
:1000BC00E4E0EEBFC0E0D2E00C94A3005FD068D0C7
:1000CC004A9902C0303009F001C068D00938E3E128
:1000DC001E07A8F318C01AC068D0A0E7B7E186D0F5
:1000EC00013DE7E01E0710F46DD0FACF22C046D0D8
:1000FC004FD04A9902C0303009F001C04FD00D3AB0
:10010C00EDE01E07A8F36DD0249608952898299A3F
:10011C002A982B9A2C98A0EDB7E068D0089545D07A
:10012C00ACEABDE063D0013DE7E01E0710F44AD015
:10013C00FACF2C9809911991089500E010E0209ABB
:10014C00219A229A239A249A52985A9A0830E0E0DB
:10015C001E0734F4B3DFBFDFBFDF0F5F1F4F0CC0D0
:10016C000F30E0E01E0734F4C2DFD0DFD8DF0F5FC2
:10017C001F4F02C000E010E0E9CFFFCF2DD000E010
:10018C0010E030E0289829982B9A2A9A2C980895F8
:10019C00A1E0B0E02BD00F5F1F4F0895A8ECB0E0AA
:1001AC0025D00856174F31E008951A930A9300E0B2
:1001BC0010E0289A29982A98AEEEB2E017D02B9826
:1001CC002C9A089508531F4F2C98A8ECB0E00ED031
:1001DC002C9AA8ECB0E00AC03A932A931A930A938B
:1001EC0008953B812A81198108810895109639F070
:1001FC00A89588E893E10197F1F71197C9F708954D
:00000001FF
